{
  "address": "0x7378dFa7EcEbd69775B34eBFadBEDbb5e71A0a89",
  "abi": [
    {
      "inputs": [
        {
          "internalType": "address",
          "name": "priceFeedAddress",
          "type": "address"
        }
      ],
      "stateMutability": "nonpayable",
      "type": "constructor"
    },
    {
      "inputs": [],
      "name": "FundMe_NotOwner",
      "type": "error"
    },
    {
      "inputs": [],
      "name": "MIN_USD",
      "outputs": [
        {
          "internalType": "uint256",
          "name": "",
          "type": "uint256"
        }
      ],
      "stateMutability": "view",
      "type": "function"
    },
    {
      "inputs": [],
      "name": "cheaperWithdraw",
      "outputs": [],
      "stateMutability": "nonpayable",
      "type": "function"
    },
    {
      "inputs": [],
      "name": "fund",
      "outputs": [],
      "stateMutability": "payable",
      "type": "function"
    },
    {
      "inputs": [
        {
          "internalType": "address",
          "name": "addr",
          "type": "address"
        }
      ],
      "name": "getAddressToAmountFunded",
      "outputs": [
        {
          "internalType": "uint256",
          "name": "",
          "type": "uint256"
        }
      ],
      "stateMutability": "view",
      "type": "function"
    },
    {
      "inputs": [
        {
          "internalType": "uint256",
          "name": "index",
          "type": "uint256"
        }
      ],
      "name": "getFunder",
      "outputs": [
        {
          "internalType": "address",
          "name": "",
          "type": "address"
        }
      ],
      "stateMutability": "view",
      "type": "function"
    },
    {
      "inputs": [],
      "name": "getOwner",
      "outputs": [
        {
          "internalType": "address",
          "name": "",
          "type": "address"
        }
      ],
      "stateMutability": "view",
      "type": "function"
    },
    {
      "inputs": [],
      "name": "getPriceFeed",
      "outputs": [
        {
          "internalType": "contract AggregatorV3Interface",
          "name": "",
          "type": "address"
        }
      ],
      "stateMutability": "view",
      "type": "function"
    },
    {
      "inputs": [],
      "name": "withdraw",
      "outputs": [],
      "stateMutability": "nonpayable",
      "type": "function"
    }
  ],
  "transactionHash": "0x7b792e980d5befb499a68aeb7bd2487d74bc4ce9bb7cc354474e3008760a38e9",
  "args": [
    "0x694AA1769357215DE4FAC081bf1f309aDC325306"
  ],
  "numDeployments": 2,
  "solcInputHash": "4a87648808468077eb296bf2dbb271ac",
  "bytecode": "0x60a060405234801561001057600080fd5b506040516114353803806114358339818101604052810190610032919061025a565b3373ffffffffffffffffffffffffffffffffffffffff1660808173ffffffffffffffffffffffffffffffffffffffff16815250506100ad6040518060400160405280600b81526020017f6f776e65722069732025730000000000000000000000000000000000000000008152506080516100f460201b60201c565b80600260006101000a81548173ffffffffffffffffffffffffffffffffffffffff021916908373ffffffffffffffffffffffffffffffffffffffff16021790555050610385565b610192828260405160240161010a929190610326565b6040516020818303038152906040527f319af333000000000000000000000000000000000000000000000000000000007bffffffffffffffffffffffffffffffffffffffffffffffffffffffff19166020820180517bffffffffffffffffffffffffffffffffffffffffffffffffffffffff838183161783525050505061019660201b60201c565b5050565b6101b7816101b26101ba60201b6108bb176101db60201b60201c565b60201c565b50565b60006a636f6e736f6c652e6c6f679050600080835160208501845afa505050565b6101ed60201b61099e17819050919050565b6101f5610356565b565b600080fd5b600073ffffffffffffffffffffffffffffffffffffffff82169050919050565b6000610227826101fc565b9050919050565b6102378161021c565b811461024257600080fd5b50565b6000815190506102548161022e565b92915050565b6000602082840312156102705761026f6101f7565b5b600061027e84828501610245565b91505092915050565b600081519050919050565b600082825260208201905092915050565b60005b838110156102c15780820151818401526020810190506102a6565b60008484015250505050565b6000601f19601f8301169050919050565b60006102e982610287565b6102f38185610292565b93506103038185602086016102a3565b61030c816102cd565b840191505092915050565b6103208161021c565b82525050565b6000604082019050818103600083015261034081856102de565b905061034f6020830184610317565b9392505050565b7f4e487b7100000000000000000000000000000000000000000000000000000000600052605160045260246000fd5b6080516110876103ae6000396000818161020b0152818161044701526105d201526110876000f3fe60806040526004361061007b5760003560e01c80639e87a5cd1161004e5780639e87a5cd1461012a578063b60d428814610155578063be2693f01461015f578063d7b4750c146101765761007b565b80630343fb2514610080578063213dbea2146100bd5780633ccfd60b146100e8578063893d20e8146100ff575b600080fd5b34801561008c57600080fd5b506100a760048036038101906100a29190610ab2565b6101b3565b6040516100b49190610af8565b60405180910390f35b3480156100c957600080fd5b506100d26101fc565b6040516100df9190610af8565b60405180910390f35b3480156100f457600080fd5b506100fd610209565b005b34801561010b57600080fd5b50610114610443565b6040516101219190610b22565b60405180910390f35b34801561013657600080fd5b5061013f61046b565b60405161014c9190610b9c565b60405180910390f35b61015d610495565b005b34801561016b57600080fd5b506101746105d0565b005b34801561018257600080fd5b5061019d60048036038101906101989190610be3565b610874565b6040516101aa9190610b22565b60405180910390f35b6000600160008373ffffffffffffffffffffffffffffffffffffffff1673ffffffffffffffffffffffffffffffffffffffff168152602001908152602001600020549050919050565b6802b5e3af16b188000081565b7f000000000000000000000000000000000000000000000000000000000000000073ffffffffffffffffffffffffffffffffffffffff163373ffffffffffffffffffffffffffffffffffffffff161461028e576040517f10e0797900000000000000000000000000000000000000000000000000000000815260040160405180910390fd5b60005b6000805490508110156103335760008082815481106102b3576102b2610c10565b5b9060005260206000200160009054906101000a900473ffffffffffffffffffffffffffffffffffffffff1690506000600160008373ffffffffffffffffffffffffffffffffffffffff1673ffffffffffffffffffffffffffffffffffffffff16815260200190815260200160002081905550508080600101915050610291565b50600067ffffffffffffffff81111561034f5761034e610c3f565b5b60405190808252806020026020018201604052801561037d5781602001602082028036833780820191505090505b50600090805190602001906103939291906109a8565b5060003373ffffffffffffffffffffffffffffffffffffffff16476040516103ba90610c9f565b60006040518083038185875af1925050503d80600081146103f7576040519150601f19603f3d011682016040523d82523d6000602084013e6103fc565b606091505b5050905080610440576040517f08c379a000000000000000000000000000000000000000000000000000000000815260040161043790610d11565b60405180910390fd5b50565b60007f0000000000000000000000000000000000000000000000000000000000000000905090565b6000600260009054906101000a900473ffffffffffffffffffffffffffffffffffffffff16905090565b6802b5e3af16b18800006104d4600260009054906101000a900473ffffffffffffffffffffffffffffffffffffffff16346108dc90919063ffffffff16565b1015610515576040517f08c379a000000000000000000000000000000000000000000000000000000000815260040161050c90610d7d565b60405180910390fd5b6000339080600181540180825580915050600190039060005260206000200160009091909190916101000a81548173ffffffffffffffffffffffffffffffffffffffff021916908373ffffffffffffffffffffffffffffffffffffffff16021790555034600160003373ffffffffffffffffffffffffffffffffffffffff1673ffffffffffffffffffffffffffffffffffffffff16815260200190815260200160002060008282546105c79190610dcc565b92505081905550565b7f000000000000000000000000000000000000000000000000000000000000000073ffffffffffffffffffffffffffffffffffffffff163373ffffffffffffffffffffffffffffffffffffffff1614610655576040517f10e0797900000000000000000000000000000000000000000000000000000000815260040160405180910390fd5b6000808054806020026020016040519081016040528092919081815260200182805480156106d857602002820191906000526020600020905b8160009054906101000a900473ffffffffffffffffffffffffffffffffffffffff1673ffffffffffffffffffffffffffffffffffffffff168152602001906001019080831161068e575b5050505050905060008151905060005b8181101561076257600083828151811061070557610704610c10565b5b602002602001015190506000600160008373ffffffffffffffffffffffffffffffffffffffff1673ffffffffffffffffffffffffffffffffffffffff168152602001908152602001600020819055505080806001019150506106e8565b50600067ffffffffffffffff81111561077e5761077d610c3f565b5b6040519080825280602002602001820160405280156107ac5781602001602082028036833780820191505090505b50600090805190602001906107c29291906109a8565b5060003373ffffffffffffffffffffffffffffffffffffffff16476040516107e990610c9f565b60006040518083038185875af1925050503d8060008114610826576040519150601f19603f3d011682016040523d82523d6000602084013e61082b565b606091505b505090508061086f576040517f08c379a000000000000000000000000000000000000000000000000000000000815260040161086690610d11565b60405180910390fd5b505050565b600080828154811061088957610888610c10565b5b9060005260206000200160009054906101000a900473ffffffffffffffffffffffffffffffffffffffff169050919050565b60006a636f6e736f6c652e6c6f679050600080835160208501845afa505050565b6000670de0b6b3a76400006108f08361090d565b846108fb9190610e00565b6109059190610e71565b905092915050565b6000808273ffffffffffffffffffffffffffffffffffffffff1663feaf968c6040518163ffffffff1660e01b815260040160a060405180830381865afa15801561095b573d6000803e3d6000fd5b505050506040513d601f19601f8201168201806040525081019061097f9190610f2f565b5050509150506402540be400816109969190610faa565b915050919050565b6109a6611022565b565b828054828255906000526020600020908101928215610a21579160200282015b82811115610a205782518260006101000a81548173ffffffffffffffffffffffffffffffffffffffff021916908373ffffffffffffffffffffffffffffffffffffffff160217905550916020019190600101906109c8565b5b509050610a2e9190610a32565b5090565b5b80821115610a4b576000816000905550600101610a33565b5090565b600080fd5b600073ffffffffffffffffffffffffffffffffffffffff82169050919050565b6000610a7f82610a54565b9050919050565b610a8f81610a74565b8114610a9a57600080fd5b50565b600081359050610aac81610a86565b92915050565b600060208284031215610ac857610ac7610a4f565b5b6000610ad684828501610a9d565b91505092915050565b6000819050919050565b610af281610adf565b82525050565b6000602082019050610b0d6000830184610ae9565b92915050565b610b1c81610a74565b82525050565b6000602082019050610b376000830184610b13565b92915050565b6000819050919050565b6000610b62610b5d610b5884610a54565b610b3d565b610a54565b9050919050565b6000610b7482610b47565b9050919050565b6000610b8682610b69565b9050919050565b610b9681610b7b565b82525050565b6000602082019050610bb16000830184610b8d565b92915050565b610bc081610adf565b8114610bcb57600080fd5b50565b600081359050610bdd81610bb7565b92915050565b600060208284031215610bf957610bf8610a4f565b5b6000610c0784828501610bce565b91505092915050565b7f4e487b7100000000000000000000000000000000000000000000000000000000600052603260045260246000fd5b7f4e487b7100000000000000000000000000000000000000000000000000000000600052604160045260246000fd5b600081905092915050565b50565b6000610c89600083610c6e565b9150610c9482610c79565b600082019050919050565b6000610caa82610c7c565b9150819050919050565b600082825260208201905092915050565b7f43616c6c206661696c6564210000000000000000000000000000000000000000600082015250565b6000610cfb600c83610cb4565b9150610d0682610cc5565b602082019050919050565b60006020820190508181036000830152610d2a81610cee565b9050919050565b7f596f75206e65656420746f2073656e64206d6f72652045544821000000000000600082015250565b6000610d67601a83610cb4565b9150610d7282610d31565b602082019050919050565b60006020820190508181036000830152610d9681610d5a565b9050919050565b7f4e487b7100000000000000000000000000000000000000000000000000000000600052601160045260246000fd5b6000610dd782610adf565b9150610de283610adf565b9250828201905080821115610dfa57610df9610d9d565b5b92915050565b6000610e0b82610adf565b9150610e1683610adf565b9250828202610e2481610adf565b91508282048414831517610e3b57610e3a610d9d565b5b5092915050565b7f4e487b7100000000000000000000000000000000000000000000000000000000600052601260045260246000fd5b6000610e7c82610adf565b9150610e8783610adf565b925082610e9757610e96610e42565b5b828204905092915050565b600069ffffffffffffffffffff82169050919050565b610ec181610ea2565b8114610ecc57600080fd5b50565b600081519050610ede81610eb8565b92915050565b6000819050919050565b610ef781610ee4565b8114610f0257600080fd5b50565b600081519050610f1481610eee565b92915050565b600081519050610f2981610bb7565b92915050565b600080600080600060a08688031215610f4b57610f4a610a4f565b5b6000610f5988828901610ecf565b9550506020610f6a88828901610f05565b9450506040610f7b88828901610f1a565b9350506060610f8c88828901610f1a565b9250506080610f9d88828901610ecf565b9150509295509295909350565b6000610fb582610ee4565b9150610fc083610ee4565b9250828202610fce81610ee4565b91507f8000000000000000000000000000000000000000000000000000000000000000841460008412161561100657611005610d9d565b5b828205841483151761101b5761101a610d9d565b5b5092915050565b7f4e487b7100000000000000000000000000000000000000000000000000000000600052605160045260246000fdfea264697066735822122086ffd7142a1f4b427d253aed0e75ac9d0e27a569c3bdd75c4e3cdde8ddb5fdd064736f6c634300081b0033",
  "devdoc": {
    "kind": "dev",
    "methods": {},
    "title": "@author",
    "version": 1
  },
  "userdoc": {
    "kind": "user",
    "methods": {
      "fund()": {
        "notice": "@dev"
      }
    },
    "notice": "@dev",
    "version": 1
  },
  "storageLayout": {
    "storage": [
      {
        "astId": 63,
        "contract": "contracts/FundMe.sol:FundMe",
        "label": "s_funders",
        "offset": 0,
        "slot": "0",
        "type": "t_array(t_address)dyn_storage"
      },
      {
        "astId": 67,
        "contract": "contracts/FundMe.sol:FundMe",
        "label": "s_addressToAmountFunded",
        "offset": 0,
        "slot": "1",
        "type": "t_mapping(t_address,t_uint256)"
      },
      {
        "astId": 72,
        "contract": "contracts/FundMe.sol:FundMe",
        "label": "s_priceFeed",
        "offset": 0,
        "slot": "2",
        "type": "t_contract(AggregatorV3Interface)45"
      }
    ],
    "types": {
      "t_address": {
        "encoding": "inplace",
        "label": "address",
        "numberOfBytes": "20"
      },
      "t_array(t_address)dyn_storage": {
        "base": "t_address",
        "encoding": "dynamic_array",
        "label": "address[]",
        "numberOfBytes": "32"
      },
      "t_contract(AggregatorV3Interface)45": {
        "encoding": "inplace",
        "label": "contract AggregatorV3Interface",
        "numberOfBytes": "20"
      },
      "t_mapping(t_address,t_uint256)": {
        "encoding": "mapping",
        "key": "t_address",
        "label": "mapping(address => uint256)",
        "numberOfBytes": "32",
        "value": "t_uint256"
      },
      "t_uint256": {
        "encoding": "inplace",
        "label": "uint256",
        "numberOfBytes": "32"
      }
    }
  }
}